:100C400054454D50523A46414E4F4E4854524F4EE5
:100C500053504545443A4C4556454C00484541544F
:100C60003A4C4556454C004E4F524D2E46414E2C67
:070C7000485452204F464694
:070CA500120D227F1E7E00EC
:100CAC00E4FDFCC3ED9FEC9E5015E4FBFA0BBB007E
:0F0CBC00010ABA04F8BBFBF50DBD00010C80E482
:010CCB002206
:100D5700D297C2A0D2A1309706C2A2D2A280F72210
:070D2D00AF09120C777F8B68
:0E0D3400120D578F90C2A0C2A1D2A2C2A2225D
:100D42007F38120D347F0C120D347F01120D347F67
:050D520080120D3422A7
:0E0D14007F327E00120CAC740A2508F8E6FF50
:0B0D22008F90D2A0C2A1D2A2C2A222D8
:100CCC00AE05A907AF06120CA5120CACAF01120DA4
:100CDC00227F1E120CAC7F20120CAC7F1E120CACAF
:050CEC007F43020D2210
:100C7700EF75F00A120BD5FEEF75F00A120BD5AF20
:100C8700F0EE75F00A120BD5ADF0EE75F00A120B07
:0E0C9700D5FE430730430530430630020CCC37
:070BF7007F86120D34AF09E7
:100BFE00EF75F00A120BD5FEEF75F00A120BD5AF9A
:100C0E00F0A907EE75F00A120BD5AFF0EE75F00AEB
:100C1E00120BD5FE430130430730430630120CA5AC
:100C2E00120CACAF01120D227F1E120CAC7FC00253
:020C3E000D3473
:0D0D6700C2A4D2A420A3FDC2A5AFB0D2A5A6
:010D7400225C
:10080000780A7C007D007BFF7A0C79407E007F06B1
:10081000120BAF78107C007D007BFF7A0C79467E4E
:10082000007F05120BAF78157C007D007BFF7A0CF2
:10083000794B7E007F05120BAF781A7C007D007B20
:10084000FF7A0C79507E007F0C120BAF78267C006B
:100850007D007BFF7A0C795C7E007F0B120BAF78FA
:10086000317C007D007BFF7A0C79677E007F05126A
:100870000BAF78367C007D007BFF7A0C796C7E00B4
:100880007F0B120BAF120D678F09E509C39414405B
:100890000302095C7F01120D34E4F508120D140502
:1008A00008E508C3940640F4120D2DE4F508120C77
:1008B000A87415120D1D0508E508C3940540EFE561
:1008C00009D3940A4046E50994145040D2A6D28137
:1008D000C2807F017E00120CAC7530317FC0120DDA
:1008E00034E4F508120CA87426120D1D0508E5085D
:1008F000C3940B40EF120D678F09E509D3940A40AA
:100900000BE50994145005120BF780E9E509C3942F
:10091000004049E509D3940A5042D2A6C280120C85
:10092000A8C2817F01120CAC7FC0120D3475303229
:10093000E4F508120CA87426120D1D0508E508C37D
:10094000940B40EF120D678F09E509C39400400C2A
:10095000E509D3940A5005120BF780E8E509C39422
:10096000144069E50994195063D280D281D2A67FE0
:1009700001120D34E4F508120D140508E508C394BE
:100980000640F4AF09120C77E4F508120CA8743194
:10099000120D1D0508E508C3940540EF7FC0120D38
:1009A00034E4F508120CA87436120D1D0508E5088C
:1009B000C3940B40EF120D678F09E509C3941440EF
:1009C0000BE50994195005120BF780E9E509C3946A
:1009D000195003020885D280D2817F01120D34E4C0
:1009E000F508120D140508E508C3940640F4120D2D
:1009F0002DE4F508120CA87410120D1D0508E50869
:100A0000C3940540EFE509C394194047E509941ED6
:100A100050417FC0120D34752531E4F508120CA841
:100A2000741A120D1D0508E508C3940C40EFC2A608
:100A30007F327E00120CACD2A6120CAC120D678F66
:100A400009E509C39419400BE509941E5005120BE2
:100A5000F780DBE509C3941E4049E5099423504320
:100A60007525327FC0120D34E4F508120CA8741AF3
:100A7000120D1D0508E508C3940C40EFC2A67F4B7C
:100A80007E00120CACD2A67F19120CAC120D678F2F
:100A900009E509C3941E400BE50994235005120B88
:100AA000F780D9E509C394235003020885752533DF
:100AB0007FC0120D34E4F508120CA8741A120D1D33
:100AC0000508E508C3940C40EFC2A6120D678F0914
:0F0AD000E509C394235003020885120BF780EA4F
:100CF1007580FF75B0FFD2A3D2A5D2A4D2A6C280BF
:100D0100C2817F327E00120CACD280D281120D42A0
:030D1100020800D5
:03000000020D7579
:0C0D7500787FE4F6D8FD758140020CF197
:100ADF00E709F608DFFA8046E709F208DFFA803EF9
:100AEF0088828C83E709F0A3DFFA8032E309F608E6
:100AFF00DFFA8078E309F208DFFA807088828C834E
:100B0F00E309F0A3DFFA806489828A83E0A3F60801
:100B1F00DFFA805889828A83E0A3F208DFFA804CDB
:100B2F0080D280FA80C680D4806980F280338010B2
:100B3F0080A680EA809A80A880DA80E280CA80331B
:100B4F0089828A83ECFAE493A3C8C582C8CCC58393
:100B5F00CCF0A3C8C582C8CCC583CCDFE9DEE78063
:100B6F000D89828A83E493A3F608DFF9ECFAA9F0E2
:100B7F00EDFB2289828A83ECFAE0A3C8C582C8CC38
:100B8F00C583CCF0A3C8C582C8CCC583CCDFEADE51
:100B9F00E880DB89828A83E493A3F208DFF980CCB3
:100BAF0088F0EF60010E4E60C388F0ED2402B404AC
:100BBF000050B9F582EB2402B4040050AF23234553
:060BCF008223900B2F733E
:100BD500C2D530F707B2D563F0FF05F030E70CB2A8
:100BE500D5F4048463F0FF05F080018430D502F468
:020BF5000422D8
:00000001FF
